{
  "contractName": "DecentralBank",
  "abi": [
    {
      "inputs": [
        {
          "internalType": "contract Reward",
          "name": "_rwd",
          "type": "address"
        },
        {
          "internalType": "contract Tether",
          "name": "_tether",
          "type": "address"
        }
      ],
      "stateMutability": "nonpayable",
      "type": "constructor"
    },
    {
      "inputs": [],
      "name": "name",
      "outputs": [
        {
          "internalType": "string",
          "name": "",
          "type": "string"
        }
      ],
      "stateMutability": "view",
      "type": "function",
      "constant": true
    },
    {
      "inputs": [],
      "name": "owner",
      "outputs": [
        {
          "internalType": "address",
          "name": "",
          "type": "address"
        }
      ],
      "stateMutability": "view",
      "type": "function",
      "constant": true
    },
    {
      "inputs": [],
      "name": "rwd",
      "outputs": [
        {
          "internalType": "contract Reward",
          "name": "",
          "type": "address"
        }
      ],
      "stateMutability": "view",
      "type": "function",
      "constant": true
    },
    {
      "inputs": [],
      "name": "tether",
      "outputs": [
        {
          "internalType": "contract Tether",
          "name": "",
          "type": "address"
        }
      ],
      "stateMutability": "view",
      "type": "function",
      "constant": true
    }
  ],
  "bytecode": "0x60806040526040518060400160405280600e81526020017f446563656e7472616c2042616e6b0000000000000000000000000000000000008152506000908051906020019061004f929190610107565b5034801561005c57600080fd5b5060405161073a38038061073a833981810160405281019061007e919061025d565b81600360006101000a81548173ffffffffffffffffffffffffffffffffffffffff021916908373ffffffffffffffffffffffffffffffffffffffff16021790555080600260006101000a81548173ffffffffffffffffffffffffffffffffffffffff021916908373ffffffffffffffffffffffffffffffffffffffff16021790555050506102fe565b828054610113906102cc565b90600052602060002090601f016020900481019282610135576000855561017c565b82601f1061014e57805160ff191683800117855561017c565b8280016001018555821561017c579182015b8281111561017b578251825591602001919060010190610160565b5b509050610189919061018d565b5090565b5b808211156101a657600081600090555060010161018e565b5090565b600080fd5b600073ffffffffffffffffffffffffffffffffffffffff82169050919050565b60006101da826101af565b9050919050565b60006101ec826101cf565b9050919050565b6101fc816101e1565b811461020757600080fd5b50565b600081519050610219816101f3565b92915050565b600061022a826101cf565b9050919050565b61023a8161021f565b811461024557600080fd5b50565b60008151905061025781610231565b92915050565b60008060408385031215610274576102736101aa565b5b60006102828582860161020a565b925050602061029385828601610248565b9150509250929050565b7f4e487b7100000000000000000000000000000000000000000000000000000000600052602260045260246000fd5b600060028204905060018216806102e457607f821691505b602082108114156102f8576102f761029d565b5b50919050565b61042d8061030d6000396000f3fe608060405234801561001057600080fd5b506004361061004c5760003560e01c806306fdde03146100515780631a8972d31461006f5780635efc071a1461008d5780638da5cb5b146100ab575b600080fd5b6100596100c9565b6040516100669190610262565b60405180910390f35b610077610157565b6040516100849190610303565b60405180910390f35b61009561017d565b6040516100a2919061033f565b60405180910390f35b6100b36101a3565b6040516100c0919061037b565b60405180910390f35b600080546100d6906103c5565b80601f0160208091040260200160405190810160405280929190818152602001828054610102906103c5565b801561014f5780601f106101245761010080835404028352916020019161014f565b820191906000526020600020905b81548152906001019060200180831161013257829003601f168201915b505050505081565b600360009054906101000a900473ffffffffffffffffffffffffffffffffffffffff1681565b600260009054906101000a900473ffffffffffffffffffffffffffffffffffffffff1681565b600160009054906101000a900473ffffffffffffffffffffffffffffffffffffffff1681565b600081519050919050565b600082825260208201905092915050565b60005b838110156102035780820151818401526020810190506101e8565b83811115610212576000848401525b50505050565b6000601f19601f8301169050919050565b6000610234826101c9565b61023e81856101d4565b935061024e8185602086016101e5565b61025781610218565b840191505092915050565b6000602082019050818103600083015261027c8184610229565b905092915050565b600073ffffffffffffffffffffffffffffffffffffffff82169050919050565b6000819050919050565b60006102c96102c46102bf84610284565b6102a4565b610284565b9050919050565b60006102db826102ae565b9050919050565b60006102ed826102d0565b9050919050565b6102fd816102e2565b82525050565b600060208201905061031860008301846102f4565b92915050565b6000610329826102d0565b9050919050565b6103398161031e565b82525050565b60006020820190506103546000830184610330565b92915050565b600061036582610284565b9050919050565b6103758161035a565b82525050565b6000602082019050610390600083018461036c565b92915050565b7f4e487b7100000000000000000000000000000000000000000000000000000000600052602260045260246000fd5b600060028204905060018216806103dd57607f821691505b602082108114156103f1576103f0610396565b5b5091905056fea264697066735822122061fe7ddc89a0c3b7067fb8719078c52d18efeaf091753a3f65e62251bd7b593364736f6c634300080b0033",
  "immutableReferences": {},
  "source": "// SPDX-License-Identifier: MIT\r\npragma solidity >=0.7.0;\r\nimport \"./Reward.sol\";\r\nimport \"./Tether.sol\";\r\n\r\ncontract DecentralBank {\r\n    string public name = \"Decentral Bank\";\r\n    address public owner;\r\n    Tether public tether;\r\n    Reward public rwd;\r\n\r\n    constructor(Reward _rwd, Tether _tether) {\r\n        rwd = _rwd;\r\n        tether = _tether;\r\n    }\r\n}\r\n",
  "sourcePath": "E:\\WEB 3\\Course Udemy\\01-defi-staking-app-starter\\src\\contracts\\DecentralBank.sol",
  "compiler": {
    "name": "solc",
    "version": "0.8.11+commit.d7f03943.Emscripten.clang"
  },
  "schemaVersion": "3.4.4",
  "updatedAt": "2022-01-11T17:49:17.134Z",
  "networkType": "ethereum",
  "devdoc": {
    "kind": "dev",
    "methods": {},
    "version": 1
  },
  "userdoc": {
    "kind": "user",
    "methods": {},
    "version": 1
  }
}